{
  "_format": "hh3-artifact-1",
  "contractName": "MyWallet",
  "sourceName": "contracts/MyWallet.sol",
  "abi": [
    {
      "inputs": [],
      "stateMutability": "nonpayable",
      "type": "constructor"
    },
    {
      "inputs": [],
      "name": "deposite",
      "outputs": [],
      "stateMutability": "payable",
      "type": "function"
    },
    {
      "inputs": [
        {
          "internalType": "uint256",
          "name": "value",
          "type": "uint256"
        }
      ],
      "name": "withdraw",
      "outputs": [],
      "stateMutability": "nonpayable",
      "type": "function"
    }
  ],
  "bytecode": "0x6080604052348015600e575f5ffd5b505f80546001600160a01b0319163317905561011a8061002d5f395ff3fe6080604052600436106025575f3560e01c80632e1a7d4d146029578063a50ec326146043575b5f5ffd5b3480156033575f5ffd5b506043603f36600460ce565b6045565b005b5f546001600160a01b0316331460a15760405162461bcd60e51b815260206004820152601760248201527f4f6e6c79206f776e65722063616e207769746864726177000000000000000000604482015260640160405180910390fd5b604051339082156108fc029083905f818181858888f1935050505015801560ca573d5f5f3e3d5ffd5b5050565b5f6020828403121560dd575f5ffd5b503591905056fea2646970667358221220b2640c83a3d63111bb8d16f229834badf4069d17e29af98f4cf827ea5829995e64736f6c634300081c0033",
  "linkReferences": {},
  "deployedLinkReferences": {},
  "immutableReferences": {},
  "inputSourceName": "project/contracts/MyWallet.sol",
  "buildInfoId": "solc-0_8_28-7c518dc71cb44b9855c30d41b59c7db2d8ba7bb3"
}